:1000000049C06DC06CC06BC06AC069C068C067C0C1
:1000100066C07EC264C064C3ACC361C060C05FC060
:100020005EC05DC05CC076C0A9C0ADC0B1C0B5C087
:10003000B9C06BC0BDC00000000037003400310003
:1000400000000000380035003200000000003600DB
:100050003300300004040404040404040202020215
:10006000020203030303030301020408102040807B
:100070000102040810200102040810200000000002
:100080000000000000030405000000000000000064
:100090007000160511241FBECFE5D4E0DEBFCDBF32
:1000A00010E0A0E6B0E0ECEAF3E102C005900D92AA
:1000B000A03EB107D9F711E0A0EEB0E001C01D925B
:1000C000AE39B107E1F710E0C4E9D0E003C02297F0
:1000D000FE0166D9C039D107D1F7FCD465C990CFEC
:1000E00080EE90E068E072D0089568E873E180E007
:1000F00090E070D280EE90E099D0FC0188309105BC
:1001000008F05BC0ED5EFF4F09948CE791E065E677
:1001100070E0FED56091E9007091EA00882777FDD4
:100120008095982FDFD720E030E040E251E43FD7C0
:10013000AB01BC018CE791E022E030E0BCD68CE75B
:1001400091E060E670E0E4D56091E7007091E8002E
:10015000882777FD8095982FC5D720E030E040E2D2
:1001600051E425D7AB01BC018CE791E022E030E0FF
:10017000A2D68CE791E063E670E018C08CE791E0CE
:1001800066E770E013C08CE791E06FE770E00EC0A7
:100190008CE791E06BE870E009C08CE791E068E9DA
:1001A00070E004C08CE791E065EA70E086D60895BF
:1001B0008CE791E062EB70E080D608958CE791E0E7
:1001C00040E855E260E070E00AD308950F931F9372
:1001D0008C01862F90E0FC01E859FF4FE491D80193
:1001E000EC938C5A9F4FFC016491E62FF0E0EE0FE8
:1001F000FF1FE65BFF4F8591949112969C938E931F
:100200001197DAD1D80113966D937D938D939C93BA
:1002100016978DE19CEF18969C938E9317971A96DC
:100220009C938E9319971F910F9108954F925F920F
:100230007F928F929F92AF92BF92CF92DF92EF9276
:10024000FF920F931F93DF93CF93CDB7DEB7AD9798
:100250000FB6F894DEBF0FBECDBF6C01DC017C9001
:1002600011960D911C911297A7D16AA77BA78CA715
:100270009DA74E010894811C911C2401CE018A96F1
:10028000F20111922F01E817F907D1F7F6018381E6
:100290009481A581B6812AA53BA54CA55DA5281B07
:1002A000390B4A0B5B0BDA01C901805D9740A04016
:1002B000B04018F427E030E014C18AA59BA5ACA596
:1002C000BDA5F60183839483A583B683F894D801F2
:1002D00011968C911197E72CE0948E2111968C93B6
:1002E0007894FF24A72CBB2407C0F394BEE7FB1629
:1002F00019F421E030E0F5C082E090E0C6D1F801C9
:10030000808190E08A219B21892B79F3F894D80190
:1003100012968C9112978E2112968C9312971196A9
:100320008C911197872911968C9378948CE494E0A2
:10033000ACD1F894F80181818E2181837894FF24D7
:1003400007C0F394FAE1FF1619F422E030E0C9C0C7
:1003500082E090E09AD1D8018C9190E08A219B2193
:10036000892B79F3FF2407C0F394B3E3FB1619F448
:1003700023E030E0B6C082E090E087D1F8018081D0
:1003800090E08A219B21892B79F7FF2407C0F39401
:10039000F4E2FF1619F424E030E0A3C082E090E01C
:1003A00074D1D8018C9190E08A219B21892B79F31B
:1003B000FF2406C0B3E3FB1619F425E030E091C03A
:1003C000F39482E090E061D1F801808190E08A218D
:1003D0009B21892B79F7D401FD924D01A415B50518
:1003E000A1F6A0E0B0E020E030E08E010F5F1F4FEB
:1003F00060E170E041E050E02F5F3F4FF801E20F15
:10040000F31F80818C3058F0CB01821B930BFA01D3
:1004100002C0EE0FFF1F8A95E2F7AE2BBF2B2031F3
:10042000310551F7FE01729660E070E02FE030E098
:1004300041E050E080818C3048F0CA01022E02C0B9
:10044000880F991F0A94E2F7682B792B21503040CE
:1004500031968FEF2F3F380769F7FE01B29640E0E3
:1004600027E030E001E010E080818C3040F0C801EE
:10047000022E02C0880F991F0A94E2F7482B2150E0
:1004800030403196E415F50579F7CD019F77F601F7
:100490009087878377FF08C088279927861B970B4B
:1004A0009F779287818703C0F6017287618750E04A
:1004B0002B2F332727FD3A958A2F90E0820F911D2D
:1004C000860F911D272F332727FD3A95820F911D07
:1004D00090704817590719F026E030E002C020E07C
:1004E00030E0C901AD960FB6F894DEBF0FBECDBFA8
:1004F000CF91DF911F910F91FF90EF90DF90CF9000
:10050000BF90AF909F908F907F905F904F90089595
:100510001F920F920FB60F9211242F933F934F9378
:100520005F936F937F938F939F93AF93BF9320912C
:10053000EF003091F0004091F1005091F200709185
:10054000F300DA01C9010296A11DB11D672F6A5F90
:100550006D3730F06D57DA01C9010396A11DB11D49
:100560006093F3008093EF009093F000A093F1006C
:10057000B093F2008091EB009091EC00A091ED001F
:10058000B091EE000196A11DB11D8093EB009093F8
:10059000EC00A093ED00B093EE00BF91AF919F915E
:1005A0008F917F916F915F914F913F912F910F901C
:1005B0000FBE0F901F9018958FB7F8942091EF0001
:1005C0003091F0004091F1005091F2008FBFB901DD
:1005D000CA0108959B01AC017FB7F8948091EB00AC
:1005E0009091EC00A091ED00B091EE0062B708B6DA
:1005F00000FE05C06F3F19F00196A11DB11D7FBF20
:10060000BA2FA92F982F8827860F911DA11DB11DE4
:1006100063E0880F991FAA1FBB1F6A95D1F7BC0121
:100620002EC0FFB7F8948091EB009091EC00A09160
:10063000ED00B091EE00E2B708B600FE05C0EF3F56
:1006400019F00196A11DB11DFFBFBA2FA92F982F38
:1006500088278E0F911DA11DB11DE3E0880F991F02
:10066000AA1FBB1FEA95D1F7861B970B885E9340A4
:10067000C0F2215030404040504068517C4F21151D
:1006800031054105510569F60895019739F0019743
:1006900029F0880F991F01970197F1F70895789431
:1006A00083B7826083BF83B7816083BF89B781606E
:1006B00089BF1EBC8EB582608EBD8EB581608EBD39
:1006C0008FB581608FBD85B5846085BD85B580643B
:1006D00085BD329A319A309A379A1AB8089508959A
:1006E0001F920F920FB60F9211242F933F934F93A7
:1006F0008F939F93EF93FF935A991CC04CB1209115
:100700003401309135012F5F3F4F2F73307080914E
:100710003601909137012817390769F0E0913401CB
:10072000F0913501EC50FF4F408330933501209319
:10073000340101C08CB1FF91EF919F918F914F9146
:100740003F912F910F900FBE0F901F901895E09141
:100750008801F0918901E05CFF4F819191912081A6
:100760003181821B930B8F739070892B09F0B7DF57
:1007700008951F920F920FB60F9211242F933F935B
:100780008F939F93EF93FF9320917801309179019C
:1007900080917A0190917B012817390711F45598BF
:1007A00013C0E0917A01F0917B01E85CFE4F20815B
:1007B00080917A0190917B0101968F739070909354
:1007C0007B0180937A012CB9FF91EF919F918F91DA
:1007D0003F912F910F900FBE0F901F901895AF92E1
:1007E000BF92DF92EF92FF920F931F93CF93DF930D
:1007F000EC017A018B01DD24D39491E0A92EB12C78
:10080000EC89FD89DD2069F0C50108A002C0880FD0
:10081000991F0A94E2F7808360E874E88EE190E023
:1008200005C0108260E472E48FE090E0A8019701B7
:1008300093D52150304040405040569547953795CC
:10084000279580E12030380720F0DD2011F0DD24ED
:10085000D7CFE889F9893083EA89FB89208319A2F7
:10086000EE89FF89408121E030E0C9010C8C02C093
:10087000880F991F0A94E2F7482B4083EE89FF897D
:100880004081C9010D8C02C0880F991F0A94E2F7BC
:10089000482B4083EE89FF894081C9010E8C02C03C
:1008A000880F991F0A94E2F7482B4083EE89FF894D
:1008B00080810F8C02C0220F331F0A94E2F720952B
:1008C00028232083DF91CF911F910F91FF90EF900C
:1008D000DF90BF90AF900895DC011C96ED91FC91E4
:1008E0001D97E05CFF4F2191319180819181281B00
:1008F000390B2F733070C9010895DC011C96ED91FE
:10090000FC911D97E05CFF4F20813181E054F04065
:10091000DF01AE5BBF4F8D919C911197281739076E
:1009200019F42FEF3FEF07C08D919C91E80FF91F4D
:100930008081282F30E0C9010895DC011C96ED91DB
:10094000FC911D97E05CFF4F20813181E054F04025
:10095000DF01AE5BBF4F8D919C911197281739072E
:1009600019F42FEF3FEF10C08D919C911197E80F74
:10097000F91F20818D919C91119701968F73907032
:1009800011969C938E9330E0C9010895DC019196F5
:100990008C919197882339F05496ED91FC9155975D
:1009A000808186FFF9CF91961C920895CF93DF93B3
:1009B000EC01EE85FF85E05CFF4F20813181E05442
:1009C000F0402F5F3F4F2F733070DF01AE5BBF4FA2
:1009D0008D919C91119728173907D1F3E05CFF4F57
:1009E00080819181E054F040E80FF91F6083EE852B
:1009F000FF85E05CFF4F31832083EE89FF892081F2
:100A000081E090E00F8C02C0880F991F0A94E2F7F2
:100A1000282B208381E089A3EC89FD898081806473
:100A2000808381E090E0DF91CF91089510927F0163
:100A300010927E0188EE93E0A0E0B0E08093800108
:100A400090938101A0938201B093830184ED90E0A3
:100A500090937D0180937C0184EF90E090938901D5
:100A60008093880188E391E090938B0180938A01C1
:100A700020E430E030938D0120938C0189E290E0F6
:100A800090938F0180938E018BE290E0909391017F
:100A9000809390018AE290E0909393018093920179
:100AA00030939501209394018CE290E0909397010C
:100AB0008093960184E08093980183E0809399016C
:100AC00087E080939A0185E080939B0181E0809389
:100AD0009C010895CF93DF93E2DD70DBC7EAD3E09A
:100AE00004DB2097E9F333DEFBCFCF92DF92EF9266
:100AF000FF920F931F93CF93DF937C016B018A01C9
:100B0000C0E0D0E00FC0D6016D916D01D701ED912D
:100B1000FC910190F081E02DC7010995C80FD91F04
:100B2000015010400115110571F7CE01DF91CF91F1
:100B30001F910F91FF90EF90DF90CF900895EF926B
:100B4000FF920F931F938C01DC01ED91FC910190BA
:100B5000F081E02D6DE009957C01D801ED91FC91CB
:100B60000190F081E02DC8016AE009959C012E0DED
:100B70003F1DC9011F910F91FF90EF900895CF93F2
:100B8000DF93EC016115710519F420E030E00FC02E
:100B9000DB010D900020E9F71197A61BB70BE88148
:100BA000F9810280F381E02DAD0109959C01C90115
:100BB000DF91CF9108954F925F927F928F929F9293
:100BC000AF92BF92CF92DF92EF92FF920F931F935B
:100BD000DF93CF93CDB7DEB7A1970FB6F894DEBF02
:100BE0000FBECDBF2C01742ECB01223008F42AE0B9
:100BF00019A231E2C32ED12CCC0EDD1E822E9924F7
:100C0000AA24BB24672D752FA5019401A5D37901D2
:100C10008A01C801B701A50194017FD3472D461B66
:100C20000894C108D1084A3014F4405D01C0495C01
:100C3000F6014083E114F1040105110521F07E2C39
:100C40005F2DC801DFCFC201B60199DFA1960FB6B3
:100C5000F894DEBF0FBECDBFCF91DF911F910F91F2
:100C6000FF90EF90DF90CF90BF90AF909F908F90CC
:100C70007F905F904F900895DC012115310541F47C
:100C8000ED91FC910190F081E02D642F099508957C
:100C900092DF0895CF92DF92EF92FF920F931F930E
:100CA000CF93DF93EC016A017B012115310541F4FB
:100CB000E881F9810190F081E02D642F09951DC034
:100CC0002A303105C9F477FF16C0E881F981019017
:100CD000F081E02D6DE209958C0144275527BA017A
:100CE0004C195D096E097F09CE012AE064DF980185
:100CF000280F391F03C02AE05EDF9C01C901DF9184
:100D0000CF911F910F91FF90EF90DF90CF900895BA
:100D100036DF08957F928F929F92AF92BF92CF92CB
:100D2000DF92EF92FF920F931F93CF93DF934C01CB
:100D30007A018B01722ECB01BA01A8019701E9D289
:100D4000882321F0C40162EC70E01FC0C0E0D0E055
:100D500057016801E894D7F8C601B5012FEF3FEFBE
:100D60004FE75FE7D6D2882349F4C601B5012FEFDC
:100D70003FEF4FE75FE717D1181614F0C1E0D0E05E
:100D8000219731F0C40166EC70E0F9DEEC0184C01B
:100D9000C801B7012FEF3FEF4FE75FE453D21816BA
:100DA0004CF0C801B7012FEF3FEF4FE75FECFBD0EE
:100DB000882324F4C4016AEC70E0E7CFC801B701CE
:100DC00020E030E040E050E0EED087FD03C0C0E01E
:100DD000D0E00EC0D401ED91FC910190F081E02DA6
:100DE000C4016DE20995EC0117FB109517F91095F8
:100DF00020E030E040E05FE3DD240AC0CA01B90131
:100E000020E030E040E251E4D2D09B01AC01D39429
:100E1000D714A0F3C801B70162D05B016C0134D1D3
:100E20007B018C01C401B801A7012AE030E024DF76
:100E3000C80FD91F772031F0C4016EEC70E09FDE3F
:100E4000C80FD91FC801B7014BD19B01AC01C60126
:100E5000B50144D01FC020E030E040E251E4F6D1BB
:100E60007B018C010CD15B016C01CC24B7FCC094DC
:100E7000DC2CC401B601A5012AE030E00BDFC80F6D
:100E8000D91FC601B5012ED19B01AC01C801B70124
:100E900025D07A947720F9F6CE01DF91CF911F917A
:100EA0000F91FF90EF90DF90CF90BF90AF909F9009
:100EB0008F907F9008952EDF0895EF92FF920F9309
:100EC0001F937C015CDE8C01C70139DE080F191FFE
:100ED000C8011F910F91FF90EF9008955058BB27C4
:100EE000AA270ED075C166D130F06BD120F031F455
:100EF0009F3F11F41EF45BC10EF4E095E7FB51C176
:100F0000E92F77D180F3BA17620773078407950733
:100F100018F071F49EF58FC10EF4E0950B2EBA2FE8
:100F2000A02D0B01B90190010C01CA01A0011124EF
:100F3000FF27591B99F0593F50F4503E68F11A169B
:100F4000F040A22F232F342F4427585FF3CF46952C
:100F500037952795A795F0405395C9F77EF41F164E
:100F6000BA0B620B730B840BBAF09150A1F0FF0F18
:100F7000BB1F661F771F881FC2F70EC0BA0F621F04
:100F8000731F841F48F4879577956795B795F795F4
:100F90009E3F08F0B3CF9395880F08F09927EE0F86
:100FA000979587950895D9D008F481E008950CD0DD
:100FB0000FC107D140F0FED030F021F45F3F19F0AF
:100FC000F0C0511139C1F3C014D198F39923C9F37A
:100FD0005523B1F3951B550BBB27AA27621773073F
:100FE000840738F09F5F5F4F220F331F441FAA1FF3
:100FF000A9F333D00E2E3AF0E0E830D091505040B3
:10100000E695001CCAF729D0FE2F27D0660F771F60
:10101000881FBB1F261737074807AB07B0E809F042
:10102000BB0B802DBF01FF2793585F4F2AF09E3FD7
:10103000510568F0B6C000C15F3FECF3983EDCF3A9
:10104000869577956795B795F7959F5FC9F7880F50
:10105000911D9695879597F90895E1E0660F771FA2
:10106000881FBB1F621773078407BA0720F0621B33
:10107000730B840BBA0BEE1F88F7E095089504D02C
:101080006894B111D9C00895BCD088F09F5790F0F2
:10109000B92F9927B751A0F0D1F0660F771F881F9D
:1010A000991F1AF0BA95C9F712C0B13081F0C3D0B8
:1010B000B1E00895C0C0672F782F8827B85F39F056
:1010C000B93FCCF3869577956795B395D9F73EF4FC
:1010D00090958095709561957F4F8F4F9F4F0895A4
:1010E000E89409C097FB3EF49095809570956195C2
:1010F0007F4F8F4F9F4F9923A9F0F92F96E9BB2778
:101100009395F695879577956795B795F111F8CFF3
:10111000FAF4BB0F11F460FF1BC06F5F7F4F8F4F5E
:101120009F4F16C0882311F096E911C0772321F054
:101130009EE8872F762F05C0662371F096E8862FEC
:1011400070E060E02AF09A95660F771F881FDAF743
:10115000880F9695879597F90895990F0008550F70
:10116000AA0BE0E8FEEF16161706E807F907C0F02D
:1011700012161306E407F50798F0621B730B840B35
:10118000950B39F40A2661F0232B242B252B21F40F
:1011900008950A2609F4A140A6958FEF811D811DAF
:1011A000089597F99F6780E870E060E008959FEFE9
:1011B00080EC089500240A941616170618060906EE
:1011C000089500240A9412161306140605060895BD
:1011D000092E0394000C11F4882352F0BB0F40F445
:1011E000BF2B11F460FF04C06F5F7F4F8F4F9F4F85
:1011F000089557FD9058440F551F59F05F3F71F007
:101200004795880F97FB991F61F09F3F79F087956D
:101210000895121613061406551FF2CF4695F1DFF6
:1012200008C0161617061806991FF1CF8695710586
:10123000610508940895E894BB2766277727CB01BA
:1012400097F908958ADF08F48FEF08950BD0C0CF87
:10125000B1DF28F0B6DF18F0952309F0A2CFA7CFB1
:101260001124EACFC6DFA0F3959FD1F3950F50E08C
:10127000551F629FF001729FBB27F00DB11D639F48
:10128000AA27F00DB11DAA1F649F6627B00DA11DEE
:10129000661F829F2227B00DA11D621F739FB00D94
:1012A000A11D621F839FA00D611D221F749F332704
:1012B000A00D611D231F849F600D211D822F762F9D
:1012C0006A2F11249F5750408AF0E1F088234AF09A
:1012D000EE0FFF1FBB1F661F771F881F91505040E6
:1012E000A9F79E3F510570F05CCFA6CF5F3FECF3AE
:1012F000983EDCF3869577956795B795F795E795D2
:101300009F5FC1F7FE2B880F911D9695879597F9E2
:10131000089523DF880B990B0895629FD001739F76
:10132000F001829FE00DF11D649FE00DF11D929F81
:10133000F00D839FF00D749FF00D659FF00D9927C0
:10134000729FB00DE11DF91F639FB00DE11DF91FE4
:10135000BD01CF0111240895A1E21A2EAA1BBB1BC7
:10136000FD010DC0AA1FBB1FEE1FFF1FA217B30771
:10137000E407F50720F0A21BB30BE40BF50B661F87
:10138000771F881F991F1A9469F76095709580954B
:1013900090959B01AC01BD01CF010895EE0FFF1F99
:0C13A0000590F491E02D0994F894FFCF23
:1013AC004320002500636865636B5F73756D5F6533
:1013BC0072726F7220004255535F48756E67004E13
:1013CC006F745F50726573656E740041434B5F744C
:1013DC00696D655F6F75740053796E635F54696DE9
:1013EC00656F757400446174615F54696D656F75E8
:1013FC007400506F6C6C65645F746F5F71756963BA
:10140C006B006E616E00696E66006F7666002E0072
:10141C0000000000D60475056C049D047D04C60410
:00000001FF
