:101E000011248FE594E09EBF8DBF84B714BE81FF7F
:101E1000EED085E08EBD82E08BB988E18AB986E894
:101E200080BD88E089B98EE0CED0BD9A26E088E1F9
:101E30009EEF54E040E29DBD8CBD58BF08B602FE47
:101E4000FDCF38B3342738BBA8952150A1F788249B
:101E50009924CC24C394F5E0DF2EE1E1EE2E73E06B
:101E6000F72EAAD0813489F4A7D08983B0D0898194
:101E7000823819F484E09CD098C0813819F484E049
:101E800097D093C083E094D090C0823419F484E159
:101E9000A6D08BC0853419F485E0A1D086C08535E5
:101EA00069F48AD0082F10E087D090E0982E88241B
:101EB000802A912A880C991C8AD077C0863529F40B
:101EC00084E08DD080E074D070C0843609F043C0C7
:101ED00073D072D0B82E70D080E0881688E1980652
:101EE00030F4F401F7BEE89500E011E002C000E034
:101EF00011E062D0F80181938F01BE16D1F7F0E0B6
:101F00008F16F8E19F0618F0F401F7BEE8955FD050
:101F100007B600FCFDCFF401A0E0B1E02C9130E069
:101F200011968C91119790E0982F8827822B932BF4
:101F300012960C01C7BEE8951124329681E0A034B8
:101F4000B80761F7F401D7BEE89507B600FCFDCFEE
:101F5000E7BEE8952AC08437B9F42ED02DD0A82E3C
:101F60002BD035D0BA2CF40101C0F8018F010F5FDE
:101F70001F4F84911DD0BA94C1F70894811C911C05
:101F8000AA948A0C911C11C0853741F420D08EE1AF
:101F90000FD083E90DD087E00BD007C0813521F445
:101FA00088E011D014D001C012D080E101D059CF07
:101FB0005D9BFECF8CB908955F9BFECF5C9901C0FD
:101FC000A8958CB1089598E191BD81BD0895F4DF85
:101FD000803219F088E0F7DFFFCF84E1E9CF1F936B
:101FE000182FEADF1150E9F7F2DF1F91089580E022
:081FF000EADFEE27FF27099448
:021FFE000404D9
:0400000300001E00DB
:00000001FF
